:020000040800F2
:1000000000500020C11B0008011B0008071B00084E
:100010000D1B0008131B0008191B0008000000003E
:100020000000000000000000000000001F1B00088E
:100030002B1B000800000000371B0008431B0008B2
:10004000091C0008091C0008091C0008091C0008FC
:10005000091C0008091C0008091C0008091C0008EC
:10006000091C0008091C0008091C0008511B000895
:10007000091C0008091C0008091C0008091C0008CC
:10008000091C0008091C0008091C0008091C0008BC
:10009000091C0008091C0008091C0008091C0008AC
:1000A000651B0008791B00088D1B0008A11B0008B8
:1000B000091C0008091C0008091C0008091C00088C
:1000C000091C0008091C0008091C0008091C00087C
:1000D000091C0008091C0008091C0008091C00086C
:1000E000091C0008091C0008091C00080000000089
:1000F0000000000000000000000000000000000000
:0C01000000000000000000005FF808F1A3
:10010C0010B5054C237833B9044B13B10448AFF345
:10011C0000800123237010BD0C00002000000000A3
:10012C003855000808B5034B1BB103490348AFF31E
:10013C00008008BD000000001000002038550008A9
:10014C0081F0004102E000BF83F0004330B54FEA7C
:10015C0041044FEA430594EA050F08BF90EA020FE9
:10016C001FBF54EA000C55EA020C7FEA645C7FEA7C
:10017C00655C00F0E2804FEA5454D4EB5555B8BF9F
:10018C006D420CDD2C4480EA020281EA030382EA10
:10019C00000083EA010180EA020281EA0303362DA2
:1001AC0088BF30BD11F0004F4FEA01314FF4801C75
:1001BC004CEA113102D0404261EB410113F0004F87
:1001CC004FEA03334CEA133302D0524263EB43033E
:1001DC0094EA050F00F0A780A4F10104D5F1200EDC
:1001EC000DDB02FA0EFC22FA05F2801841F1000137
:1001FC0003FA0EF2801843FA05F359410EE0A5F10B
:10020C0020050EF1200E012A03FA0EFC28BF4CF03B
:10021C00020C43FA05F3C01851EBE37101F00045F1
:10022C0007D54FF0000EDCF1000C7EEB00006EEBFE
:10023C000101B1F5801F1BD3B1F5001F0CD3490888
:10024C005FEA30004FEA3C0C04F101044FEA4452DF
:10025C0012F5800F80F09A80BCF1004F08BF5FEA66
:10026C00500C50F1000041EB045141EA050130BD46
:10027C005FEA4C0C404141EB0101013C28BFB1F558
:10028C00801FE9D291F0000F04BF01460020B1FAA3
:10029C0081F308BF2033A3F10B03B3F120020CDA76
:1002AC000C3208DD02F1140CC2F10C0201FA0CF054
:1002BC0021FA02F10CE002F11402D8BFC2F1200CB9
:1002CC0001FA02F120FA0CFCDCBF41EA0C0190406F
:1002DC00E41AA2BF01EB0451294330BD6FEA0404B8
:1002EC001F3C1CDA0C340EDC04F11404C4F12002A3
:1002FC0020FA04F001FA02F340EA030021FA04F3B5
:10030C0045EA030130BDC4F10C04C4F1200220FA0B
:10031C0002F001FA04F340EA0300294630BD21FA49
:10032C0004F0294630BD94F0000F83F4801306BF0F
:10033C0081F480110134013D4EE77FEA645C18BF03
:10034C007FEA655C29D094EA050F08BF90EA020F9A
:10035C0005D054EA000C04BF1946104630BD91EA92
:10036C00030F1EBF0021002030BD5FEA545C05D195
:10037C004000494128BF41F0004130BD14F58004D4
:10038C003CBF01F5801130BD01F0004545F0FE4148
:10039C0041F470014FF0000030BD7FEA645C1ABF7D
:1003AC00194610467FEA655C1CBF0B46024650EAB4
:1003BC00013406BF52EA033591EA030F41F40021E0
:1003CC0030BD00BF90F0000F04BF0021704730B566
:1003DC004FF4806404F132044FF000054FF000013B
:1003EC0050E700BF90F0000F04BF0021704730B5FC
:1003FC004FF4806404F1320410F0004548BF4042D1
:10040C004FF000013EE700BF42004FEAE2014FEA25
:10041C0031014FEA02701FBF12F07F4393F07F4F00
:10042C0081F06051704732F07F4208BF704793F003
:10043C007F4F04BF41F40021704730B54FF4607416
:10044C0001F0004521F000411CE700BF50EA010219
:10045C0008BF704730B54FF000050AE050EA0102C2
:10046C0008BF704730B511F0004502D5404261EB32
:10047C0041014FF4806404F132045FEA915C3FF473
:10048C00D8AE4FF003025FEADC0C18BF03325FEA10
:10049C00DC0C18BF033202EBDC02C2F1200300FAC1
:1004AC0003FC20FA02F001FA03FE40EA0E0021FAE6
:1004BC0002F11444BDE600BF70B54FF0FF0C4CF4D4
:1004CC00E06C1CEA11541DBF1CEA135594EA0C0F86
:1004DC0095EA0C0F00F0DEF82C4481EA030621EAC1
:1004EC004C5123EA4C5350EA013518BF52EA0335FC
:1004FC0041F4801143F4801338D0A0FB02CE4FF0AE
:10050C000005E1FB02E506F00042E0FB03E54FF0DD
:10051C000006E1FB03569CF0000F18BF4EF0010ED5
:10052C00A4F1FF04B6F5007F64F5407404D25FEAD1
:10053C004E0E6D4146EB060642EAC62141EA555184
:10054C004FEAC52040EA5E504FEACE2EB4F1FD0CC6
:10055C0088BFBCF5E06F1ED8BEF1004F08BF5FEA44
:10056C00500E50F1000041EB045170BD06F00046F6
:10057C0046EA010140EA020081EA0301B4EB5C04A3
:10058C00C2BFD4EB0C0541EA045170BD41F480119B
:10059C004FF0000E013C00F3AB8014F1360FDEBFC0
:1005AC00002001F0004170BDC4F10004203C35DA9C
:1005BC000C341BDC04F11404C4F1200500FA05F31F
:1005CC0020FA04F001FA05F240EA020001F00042C0
:1005DC0021F0004110EBD37021FA04F642EB060136
:1005EC005EEA430E08BF20EAD37070BDC4F10C0460
:1005FC00C4F1200500FA04F320FA05F001FA04F224
:10060C0040EA020001F0004110EBD37041F100010F
:10061C005EEA430E08BF20EAD37070BDC4F120051A
:10062C0000FA05F24EEA020E20FA04F301FA05F282
:10063C0043EA020321FA04F001F0004121FA04F22A
:10064C0020EA020000EBD3705EEA430E08BF20EAFA
:10065C00D37070BD94F0000F0FD101F00046400034
:10066C0041EB010111F4801F08BF013CF7D041EAB6
:10067C00060195F0000F18BF704703F000465200BA
:10068C0043EB030313F4801F08BF013DF7D043EA8B
:10069C000603704794EA0C0F0CEA135518BF95EA41
:1006AC000C0F0CD050EA410618BF52EA4306D1D1C8
:1006BC0081EA030101F000414FF0000070BD50EAE7
:1006CC00410606BF1046194652EA430619D094EA71
:1006DC000C0F02D150EA013613D195EA0C0F05D15B
:1006EC0052EA03361CBF104619460AD181EA0301AF
:1006FC0001F0004141F0FE4141F470014FF0000067
:10070C0070BD41F0FE4141F4780170BD70B54FF001
:10071C00FF0C4CF4E06C1CEA11541DBF1CEA135581
:10072C0094EA0C0F95EA0C0F00F0A7F8A4EB050463
:10073C0081EA030E52EA03354FEA013100F088805A
:10074C004FEA03334FF0805545EA131343EA126323
:10075C004FEA022245EA111545EA10654FEA0026D8
:10076C000EF000419D4208BF964244F1FD0404F591
:10077C00407402D25B084FEA3202B61A65EB0305ED
:10078C005B084FEA32024FF480104FF4002CB6EBAA
:10079C00020E75EB030E22BFB61A754640EA0C002A
:1007AC005B084FEA3202B6EB020E75EB030E22BF6A
:1007BC00B61A754640EA5C005B084FEA3202B6EBAB
:1007CC00020E75EB030E22BFB61A754640EA9C006A
:1007DC005B084FEA3202B6EB020E75EB030E22BF3A
:1007EC00B61A754640EADC0055EA060E18D04FEAF8
:1007FC00051545EA16754FEA06164FEAC30343EA98
:10080C0052734FEAC2025FEA1C1CC0D111F4801F64
:10081C000BD141EA00014FF000004FF0004CB6E75D
:10082C0011F4801F04BF01430020B4F1FD0C88BFFC
:10083C00BCF5E06F3FF6AFAEB5EB030C04BFB6EB07
:10084C00020C5FEA500C50F1000041EB045170BDFA
:10085C000EF0004E4EEA113114EB5C04C2BFD4EB27
:10086C000C0541EA045170BD41F480114FF0000EAB
:10087C00013C90E645EA060E8DE60CEA135594EA27
:10088C000C0F08BF95EA0C0F3FF43BAF94EA0C0F2A
:10089C000AD150EA01347FF434AF95EA0C0F7FF49F
:1008AC0025AF104619462CE795EA0C0F06D152EAF3
:1008BC0003353FF4FDAE1046194622E750EA4106D7
:1008CC0018BF52EA43067FF4C5AE50EA41047FF4E8
:1008DC000DAF52EA43057FF4EBAE12E74A0011D29A
:1008EC0012F5001211D20DD56FF47873B3EB62527E
:1008FC000ED44FEAC12343F0004343EA505323FA8A
:10090C0002F070474FF00000704750EA013002D1FE
:10091C004FF0FF3070474FF00000704780F0004000
:10092C0002E000BF81F0004142001FBF5FEA4103BB
:10093C0092EA030F7FEA226C7FEA236C6AD04FEABB
:10094C001262D2EB1363C1BFD21841404840414000
:10095C00B8BF5B42192B88BF704710F0004F40F4B2
:10096C00000020F07F4018BF404211F0004F41F4CE
:10097C00000121F07F4118BF494292EA030F3FD09A
:10098C00A2F1010241FA03FC10EB0C00C3F12003AD
:10099C0001FA03F100F0004302D5494260EB40003C
:1009AC00B0F5000F13D3B0F1807F06D340084FEAA7
:1009BC00310102F10102FE2A51D2B1F1004F40EB9C
:1009CC00C25008BF20F0010040EA03007047490004
:1009DC0040EB0000013A28BFB0F5000FEDD2B0FAA1
:1009EC0080FCACF1080CB2EB0C0200FA0CF0AABFC4
:1009FC0000EBC25052421843BCBFD0401843704762
:100A0C0092F0000F81F4000106BF80F40000013267
:100A1C00013BB5E74FEA41037FEA226C18BF7FEA3E
:100A2C00236C21D092EA030F04D092F0000F08BF80
:100A3C000846704790EA010F1CBF0020704712F067
:100A4C007F4F04D1400028BF40F00040704712F1A6
:100A5C0000723CBF00F50000704700F0004343F00B
:100A6C00FE4040F4000070477FEA226216BF084641
:100A7C007FEA23630146420206BF5FEA412390EA04
:100A8C00010F40F4800070474FF0000304E000BFFA
:100A9C0010F0004348BF40425FEA000C08BF7047AB
:100AAC0043F0964301464FF000001CE050EA01026F
:100ABC0008BF70474FF000030AE000BF50EA010284
:100ACC0008BF704711F0004302D5404261EB410171
:100ADC005FEA010C02BF84460146002043F0B64396
:100AEC0008BFA3F18053A3F50003BCFA8CF2083ABB
:100AFC00A3EBC25310DB01FA02FC634400FA02FCC4
:100B0C00C2F12002BCF1004F20FA02F243EB0200CA
:100B1C0008BF20F00100704702F1200201FA02FC2C
:100B2C00C2F1200250EA4C0021FA02F243EB02001F
:100B3C0008BF20EADC7070474FF0FF3C06E000BFB6
:100B4C004FF0010C02E000BF4FF0010C4DF804CD4A
:100B5C004FEA40024FEA41037FEA226C18BF7FEA5A
:100B6C00236C11D001B052EA530C18BF90EA010F5C
:100B7C0058BFB2EB030088BFC81738BF6FEAE170EB
:100B8C0018BF40F0010070477FEA226C02D15FEA87
:100B9C00402C05D17FEA236CE4D15FEA412CE1D0F3
:100BAC005DF8040B704700BF844608466146FFE7BA
:100BBC000FB5FFF7C9FF002848BF10F1000F0FBD9C
:100BCC004DF808EDFFF7F4FF0CBF012000205DF895
:100BDC0008FB00BF4DF808EDFFF7EAFF34BF01201A
:100BEC0000205DF808FB00BF4DF808EDFFF7E0FFB3
:100BFC0094BF012000205DF808FB00BF4DF808ED04
:100C0C00FFF7D2FF94BF012000205DF808FB00BF66
:100C1C004DF808EDFFF7C8FF34BF012000205DF848
:100C2C0008FB00BF42000ED2B2F1FE4F0BD34FF0C7
:100C3C009E03B3EB126209D44FEA002343F0004346
:100C4C0023FA02F070474FF00000704712F1610F69
:100C5C0001D1420202D14FF0FF3070474FF000003B
:100C6C00704700BF80B500AF0021024803F0C0FA06
:100C7C0000BF80BD4001002080B483B000AF0346AC
:100C8C00FB80044B1B68FA885A6300BF0C37BD46C7
:100C9C0080BC70474001002080B500AF02220349A0
:100CAC00034801F00BF900BF80BD00BF28000020F5
:100CBC003000002080B400AF024B1B681846BD46C4
:100CCC0080BC70472800002080B586B002AF034678
:100CDC00FB71FB7923F00F03FB73FB791B01BB73D7
:100CEC00FB7B43F00C03DBB23B72FB7B43F0080352
:100CFC00DBB27B72BB7B43F00C03DBB2BB72BB7B06
:100D0C0043F00803DBB2FB7207F108026423009383
:100D1C0004234E21034802F0B9F900BF1037BD4639
:100D2C0080BD00BFA400002080B586B002AF034692
:100D3C00FB71FB7923F00F03FB73FB791B01BB7376
:100D4C00FB7B43F00D03DBB23B72FB7B43F00903EF
:100D5C00DBB27B72BB7B43F00D03DBB2BB72BB7BA4
:100D6C0043F00903DBB2FB7207F108026423009322
:100D7C0004234E21034802F089F900BF1037BD4609
:100D8C0080BD00BFA400002080B582B000AF8020E1
:100D9C00FFF79AFF00237B6005E02020FFF7C4FFDC
:100DAC007B6801337B607B68452BF6DD00BF00BFA1
:100DBC000837BD4680BD80B582B000AF7860396021
:100DCC007B68002B03D07B68012B05D009E03B68C6
:100DDC0043F080033B6004E03B6843F0C0033B609E
:100DEC0000BF3B68DBB21846FFF76EFF00BF083749
:100DFC00BD4680BD80B500AF322000F063FF3020CF
:100E0C00FFF762FF052000F05DFF3020FFF75CFF6D
:100E1C00012000F057FF3020FFF756FF0A2000F0AA
:100E2C0051FF2020FFF750FF0A2000F04BFF282035
:100E3C00FFF74AFF012000F045FF0820FFF744FFB1
:100E4C00012000F03FFF0120FFF73EFF012000F0E2
:100E5C0039FF012000F036FF0620FFF735FF012097
:100E6C0000F030FF0C20FFF72FFF00BF80BD80B5D6
:100E7C0082B000AF786006E07B685A1C7A601B7801
:100E8C001846FFF751FF7B681B78002BF4D100BF8D
:100E9C0000BF0837BD4680BD80B584B000AF0346A7
:100EAC00FB800023FB730023BB81FB88002B1FD12D
:100EBC003020FFF739FF3DE0BB891A4692001344FE
:100ECC005B0098B2FA881D4BA3FB0213D9080B46A2
:100EDC009B000B445B00D31A9BB20344BB81FB8881
:100EEC00164AA2FB0323DB08FB80FB7B0133FB735D
:100EFC00FB88002BE0D11AE0BA89104BA3FB02133C
:100F0C00D9080B469B000B445B00D31A9BB2DBB297
:100F1C003033FB72FB7A1846FFF706FFBB89074A92
:100F2C00A2FB0323DB08BB81FB7B013BFB73FB7B3D
:100F3C00002BE1D11037BD4680BD00BFCDCCCCCC51
:100F4C0080B500AF01224FF40071024801F041FF5F
:100F5C0000BF80BD0008014080B582B000AF786052
:100F6C00FFF7EEFF214B1B780133DAB21F4B1A70DF
:100F7C001E4B1B78012B14D17B681B6800225A6214
:100F8C007B681B681A6A7B681B6822F00A021A626B
:100F9C007B681B681A6A7B681B6842F002021A6243
:100FAC0020E0124B1B78022B19D10021786803F03A
:100FBC0007FE03460E4A13607B681B681A6A7B683F
:100FCC001B6822F00A021A627B681A687B681B682D
:100FDC00126A1A627B681B6800225A6202E0034B99
:100FEC0000221A7000BF0837BD4680BD8901002061
:100FFC008C01002080B500AF01224FF400710B482A
:10100C0001F0E7FE0A2000F05DFE00224FF40071B3
:10101C00064801F0DEFE064B1B68DA68044B1B68C1
:10102C0042F00202DA6000BF80BD00BF0008014040
:10103C00F800002080B500AF0C4B1B681846FFF77A
:10104C00C1F94FF000020A4BFFF760FB02460B465A
:10105C0010461946FFF742FC03469BB21846FFF7B1
:10106C0013FD0346034A136000BF80BD8C010020B2
:10107C0000404D409001002080B500AFFFF784FE8A
:10108C0000210020FFF797FE1448FFF7F0FE002127
:10109C000120FFF790FE1248FFF7E9FE15E0022150
:1010AC00104801F07FFE0346012B03D10E4B0122A9
:1010BC001A700EE004210B4801F074FE0346012B5C
:1010CC0003D1094B02221A7003E0074B1B78002B4B
:1010DC00E5D0054B1B78184680BD00BF5055000865
:1010EC005C550008000801408801002080B500AF65
:1010FC00084B1B6808491846FFF776FD0346002B82
:10110C0003D00020FFF7B8FD01E000F08FF800BF1E
:10111C0080BD00BF900100200000404080B500AFB2
:10112C00FFF732FE00210020FFF745FE3548FFF7A0
:10113C009EFE354B1B681846FFF774FD03469BB2A9
:10114C001846FFF7A9FE09210020FFF734FE2F48AF
:10115C00FFF78DFE2C4B1B682D491846FFF744FDFD
:10116C000346002B03D00020FFF786FD48E0264BFA
:10117C001B6828491846FFF737FD0346002B0CD097
:10118C00214B1B6824491846FFF738FD0346002BFA
:10119C0003D09620FFF770FD32E01B4B1B681F49F4
:1011AC001846FFF721FD0346002B0DD0164B1B688C
:1011BC001B491846FFF722FD0346002B04D04FF4C1
:1011CC009670FFF759FD1BE00F4B1B68154918462D
:1011DC00FFF70AFD0346002B0DD00B4B1B68124981
:1011EC001846FFF70BFD0346002B04D04FF4C870D4
:1011FC00FFF742FD04E04FF41670FFF73DFDFFE7EB
:10120C0000BF80BD6C55000890010020745500088B
:10121C0000004040000020410000C0400000304170
:10122C000000A0410000A8410000244280B500AF9E
:10123C00FFF7AAFD00210020FFF7BDFD1A48FFF7BC
:10124C0016FE1A4B1B681846FFF7ECFC03469BB2C4
:10125C001846FFF721FE09210020FFF7ACFD1448CA
:10126C00FFF705FEFFF726FD0346B3F5FA7F04D81A
:10127C004FF41670FFF700FD07E0FFF71BFD034668
:10128C00002B02D00020FFF7F7FC084B1B68094924
:10129C001846FFF7A9FC0346002B00D101E0FFF72D
:1012AC0025FF00BF80BD00BF6C55000890010020D9
:1012BC007C5500080000404080B500AFFFF79AFE57
:1012CC00FFF7B8FEFFF7D8FE03461A461A4B1A7002
:1012DC0000210020FFF76FFD1848FFF7C8FD06211D
:1012EC000020FFF768FD164B1B681846FFF79AFCA9
:1012FC0003469BB21846FFF7CFFD0F4B1B78012B13
:10130C0002D0022B03D005E0FFF790FF02E0FFF7BD
:10131C0005FF00BF00210120FFF74DFDFFF7CAFCC0
:10132C0003469BB21846FFF7B7FDFA2000F0CAFC43
:10133C00FFF72AFD00BF80BD940100206C5500080A
:10134C009001002080B500AF00F05AFC00F01CF8B2
:10135C0000F0F8F900F0D8F900F0ECF800F0BCF867
:10136C0000F05CF900F06AF80021064803F03AF846
:10137C00FFF740FDFFF776FCFFF78EFCFFF79CFFB5
:10138C00FCE700BFF800002080B594B000AF07F177
:10139C00280328220021184604F09CF807F11403B6
:1013AC0000221A605A609A60DA601A613B1D0022B2
:1013BC001A605A609A60DA600123BB624FF4803382
:1013CC00FB6200233B630123BB6302237B644FF46A
:1013DC008033BB644FF4E013FB6407F12803184619
:1013EC0002F0ACF90346002B01D000F003FA0F23F6
:1013FC007B610223BB610023FB614FF480633B6282
:10140C0000237B6207F114030221184602F018FC3A
:10141C000346002B01D000F0EDF902237B60002382
:10142C00FB603B1D184602F085FD0346002B01D0E6
:10143C0000F0E0F900BF5037BD4680BD80B584B0E8
:10144C0000AF3B1D00221A605A609A60204B214A63
:10145C001A601F4B4FF480729A601D4B01221A7355
:10146C001B4B00221A751A4B4FF46022DA61184B91
:10147C0000225A60164B02221A61154800F046FCF5
:10148C000346002B01D000F0B5F903237B60012348
:10149C00BB600723FB603B1D19460D4800F008FE9E
:1014AC000346002B01D000F0A5F904237B60022336
:1014BC00BB603B1D1946064800F0FAFD0346002BA5
:1014CC0001D000F097F900BF1037BD4680BD00BFBA
:1014DC00300000200024014080B500AF124B134AAD
:1014EC001A60114B124A5A600F4B00229A600E4B35
:1014FC000022DA600C4B4FF480421A610A4B002236
:10150C005A61094B00229A61074B0022DA61064BA3
:10151C0000221A62044801F075FC0346002B01D02E
:10152C0000F068F900BF80BDA4000020005400400A
:10153C00A086010080B58AB000AF07F11803002225
:10154C001A605A609A60DA6007F1100300221A6080
:10155C005A603B4600221A605A609A60DA602D4B42
:10156C002D4A1A602B4B47225A602A4B00229A6054
:10157C00284B4FF6FE72DA60264B00221A61254B7F
:10158C0000225A61234B00229A61224802F088FD06
:10159C000346002B01D000F02DF94FF48053BB61B2
:1015AC0007F1180319461B4803F042FA0346002BB7
:1015BC0001D000F01FF9174802F0BCFE0346002BC7
:1015CC0001D000F017F900233B6100237B6107F188
:1015DC00100319460F4803F00DFF0346002B01D0F2
:1015EC0000F008F900233B6001237B600023BB6003
:1015FC000023FB603B4600221946064803F0BAF86C
:10160C000346002B01D000F0F5F800BF2837BD468B
:10161C0080BD00BFF8000020002C014080B58EB0CA
:10162C0000AF07F1280300221A605A609A60DA6052
:10163C0007F1200300221A605A603B1D00221A6039
:10164C005A609A60DA601A615A619A612D4B4FF0B8
:10165C0080421A602B4B00225A602A4B00229A605F
:10166C00284B40F28F22DA60264B00221A61254B60
:10167C0000229A61234802F013FD0346002B01D08F
:10168C0000F0B8F84FF48053BB6207F128031946F9
:10169C001C4803F0CDF90346002B01D000F0AAF84A
:1016AC00184802F04CFD0346002B01D000F0A2F8C4
:1016BC0000233B6200237B6207F12003194611488B
:1016CC0003F098FE0346002B01D000F093F8602342
:1016DC007B600023BB600023FB6000237B613B1D10
:1016EC0000221946074803F0E1F80346002B01D00D
:1016FC0000F080F8034800F0CDF900BF3837BD4644
:10170C0080BD00BF4001002080B582B000AF0C4B03
:10171C005B690B4A43F001035361094B5B6903F0AE
:10172C0001037B607B68002200210B2000F091FFFD
:10173C000B2000F0AAFF00BF0837BD4680BD00BFDC
:10174C000010024080B588B000AF07F110030022F2
:10175C001A605A609A60DA60244B9B69234A43F002
:10176C0020039361214B9B6903F02003FB60FB6812
:10177C001E4B9B691D4A43F0040393611B4B9B69F1
:10178C0003F00403BB60BB68184B9B69174A43F01A
:10179C0008039361154B9B6903F008037B607B681E
:1017AC0000224FF40071124801F013FB06233B6139
:1017BC0000237B610223BB6107F1100319460C481F
:1017CC0001F06CF94FF400733B6101237B61002342
:1017DC00BB610223FB6107F110031946044801F0B9
:1017EC005DF900BF2037BD4680BD00BF0010024030
:1017FC000008014080B400AF00BFBD4680BC7047FC
:10180C0080B485B000AF154B9B69144A43F00103BB
:10181C009361124B9B6903F00103BB60BB680F4BD8
:10182C00DB690E4A43F08053D3610C4BDB6903F048
:10183C0080537B607B680A4B5B68FB60FB6823F022
:10184C00E063FB60FB6843F00073FB60044AFB68D9
:10185C00536000BF1437BD4680BC70470010024077
:10186C000000014080B588B000AF786007F110032C
:10187C0000221A605A609A60DA607B681B68284AFA
:10188C00934249D1274B9B69264A43F400739361D9
:10189C00244B9B6903F40073FB60FB68214B9B6931
:1018AC00204A43F0040393611E4B9B6903F004032D
:1018BC00BB60BB6818233B6103237B6107F11003FA
:1018CC001946194801F0EAF8184B194A1A60174BD7
:1018DC0000225A60154B00229A60144B8022DA6069
:1018EC00124B4FF400721A61104B4FF400625A61A4
:1018FC000E4B20229A610D4B0022DA610B4800F04E
:10190C00DFFE0346002B01D0FFF774FF7B68074A0C
:10191C001A62064A7B68536200BF2037BD4680BD01
:10192C00002401400010024000080140600000202B
:10193C000800024080B588B000AF786007F1100352
:10194C0000221A605A609A60DA607B681B68154A3C
:10195C00934223D1144B9B69134A43F008039361C0
:10196C00114B9B6903F00803FB60FB68C0233B61D0
:10197C0012237B610323FB6107F1100319460B480B
:10198C0001F08CF8084BDB69074A43F40013D36170
:10199C00054BDB6903F40013BB60BB6800BF203749
:1019AC00BD4680BD0054004000100240000C0140B8
:1019BC0080B58AB000AF786007F1180300221A6076
:1019CC005A609A60DA607B681B682F4A934245D153
:1019DC002E4B9B692D4A43F4006393612B4B9B69FF
:1019EC0003F400637B617B69284B9B69274A43F0B6
:1019FC0004039361254B9B6903F004033B613B6932
:101A0C004FF48073BB610023FB6100233B6207F141
:101A1C00180319461E4801F041F800220021182035
:101A2C0000F017FE182000F030FE002200211920D3
:101A3C0000F00FFE192000F028FE002200211A20D1
:101A4C0000F007FE1A2000F020FE002200211B20CF
:101A5C0000F0FFFD1B2000F018FE10E07B681B68F7
:101A6C00B3F1804F0BD1094BDB69084A43F00103FA
:101A7C00D361064BDB6903F00103FB60FB6800BF1D
:101A8C002837BD4680BD00BF002C0140001002402D
:101A9C000008014080B588B000AF786007F11003F2
:101AAC0000221A605A609A60DA607B681B68B3F196
:101ABC00804F17D10D4B9B690C4A43F00403936183
:101ACC000A4B9B6903F00403FB60FB6801233B6139
:101ADC0002237B610223FB6107F1100319460448C2
:101AEC0000F0DCFF00BF2037BD4680BD0010024077
:101AFC000008014080B400AFFEE780B400AFFEE701
:101B0C0080B400AFFEE780B400AFFEE780B400AF56
:101B1C00FEE780B400AF00BFBD4680BC704780B408
:101B2C0000AF00BFBD4680BC704780B400AF00BFA3
:101B3C00BD4680BC704780B500AF00F0A7F800BF71
:101B4C0080BD000080B500AF024800F073FE00BFFE
:101B5C0080BD00BF6000002080B500AF024802F0DD
:101B6C0001FD00BF80BD00BFF800002080B500AFB4
:101B7C00024802F0F7FC00BF80BD00BFF800002057
:101B8C0080B500AF024802F0EDFC00BF80BD00BF85
:101B9C00F800002080B500AF024802F0E3FC00BF63
:101BAC0080BD00BFF800002080B400AF00BFBD4670
:101BBC0080BC7047FFF7F8FF0B480C490C4A002318
:101BCC0002E0D458C4500433C4188C42F9D3094AE7
:101BDC00094C002301E013600432A242FBD303F052
:101BEC0081FCFFF7AFFB7047000000200C000020C9
:101BFC00B85500080C0000209C010020FEE70000F6
:101C0C0080B500AF084B1B68074A43F01003136004
:101C1C00032000F013FD0F2000F008F8FFF7F0FD93
:101C2C000023184680BD00BF0020024080B582B062
:101C3C0000AF7860124B1A68124B1B7819464FF4A0
:101C4C007A73B3FBF1F3B2FBF3F3184600F02BFD00
:101C5C000346002B01D001230EE07B680F2B0AD822
:101C6C00002279684FF0FF3000F0F3FC064A7B68E5
:101C7C001360002300E0012318460837BD4680BDE1
:101C8C0000000020080000200400002080B400AFF9
:101C9C00054B1B781A46054B1B681344034A13600B
:101CAC0000BFBD4680BC7047080000209801002092
:101CBC0080B400AF024B1B681846BD4680BC704711
:101CCC009801002080B584B000AF7860FFF7F0FF7A
:101CDC00B8607B68FB60FB68B3F1FF3F05D00A4B33
:101CEC001B781A46FB681344FB6000BFFFF7E0FF4C
:101CFC000246BB68D31AFA689A42F7D800BF00BFF5
:101D0C001037BD4680BD00BF0800002080B586B0EE
:101D1C0000AF78600023FB7500233B610023BB60A0
:101D2C000023FB607B68002B01D10123BEE07B68A4
:101D3C009B68002B7B689B6A002B09D17B68002277
:101D4C00DA627B68002283F824207868FFF78AFD2A
:101D5C00786800F0FFFA0346FB757B689B6A03F01A
:101D6C001003002B40F09980FB7D002B40F09580F8
:101D7C007B689B6A23F4885323F0020343F002022E
:101D8C007B689A627B685A687B68DB691A437B685C
:101D9C001B7B5B001343BA681343BB607B689B6877
:101DAC00B3F5807F03D07B689B68012B02D14FF485
:101DBC00807300E000233A6913433B617B681B7D11
:101DCC00012B19D17B681B7B002B09D17B689B698C
:101DDC00013B5A033B69134343F400633B610BE043
:101DEC007B689B6A43F020027B689A627B68DB6AA3
:101DFC0043F001027B68DA627B681B685B6823F442
:101E0C0069417B681B683A690A435A607B681B68A6
:101E1C009A68284B13407A681268B9680B43936030
:101E2C007B689B68B3F5807F03D07B689B68012B34
:101E3C0004D17B681B69013B1B05FB607B681B683D
:101E4C00DB6A23F470017B681B68FA680A43DA6268
:101E5C007B681B689A68184B1340BA689A420BD17E
:101E6C007B680022DA627B689B6A23F0030343F0F1
:101E7C0001027B689A6218E07B689B6A23F012036C
:101E8C0043F010027B689A627B68DB6A43F00102C4
:101E9C007B68DA620123FB7507E07B689B6A43F081
:101EAC0010027B689A620123FB75FB7D184618377C
:101EBC00BD4680BDFDF7E1FFFE0E1FFF80B586B06D
:101ECC0000AFF860B9607A600023FB75FB681B6893
:101EDC00644A934204D0FB681B68634A934206D160
:101EEC00604B5B6803F47023002B40F0B380FB68FD
:101EFC0093F82430012B01D10223AEE0FB680122C0
:101F0C0083F82420F86800F0CBF90346FB75FB7DC1
:101F1C00002B40F09A80FB689B6A23F4706323F0DB
:101F2C00010343F48072FB689A62FB681B684E4A9B
:101F3C00934205D14B4B5B6803F47023002B15D1F6
:101F4C00FB689B6A23F48012FB689A62FB681B682F
:101F5C005B6803F48063002B26D0FB689B6A23F438
:101F6C00405343F48052FB689A621DE0FB689B6A05
:101F7C0043F48012FB689A62FB681B68394A9342EF
:101F8C0004D0FB681B68384A93420DD1354B5B6813
:101F9C0003F48063002B07D0FB689B6A23F4405347
:101FAC0043F48052FB689A62FB689B6A03F480538B
:101FBC00002B06D0FB68DB6A23F00602FB68DA62B2
:101FCC0002E0FB680022DA62FB68002283F824201E
:101FDC00FB681B6A254A9A62FB681B6A244ADA6210
:101FEC00FB681B6A234A1A63FB681B686FF00202CA
:101FFC001A60FB681B689A68FB681B6842F4807265
:10200C009A60FB68186AFB681B684C331946BA68FF
:10201C007B6800F0AFFBFB681B689B6803F46023D4
:10202C00B3F5602F08D1FB681B689A68FB681B68C6
:10203C0042F4A0029A600FE0FB681B689A68FB6888
:10204C001B6842F480129A6006E0FB68002283F859
:10205C00242001E00123FB75FB7D18461837BD4693
:10206C0080BD00BF0024014000280140E32300088C
:10207C005F2400087B24000880B483B000AF786034
:10208C0000BF0C37BD4680BC704780B483B000AF36
:10209C00786000BF0C37BD4680BC704780B483B0FD
:1020AC0000AF786000BF0C37BD4680BC70470000A5
:1020BC0080B485B000AF786039600023FB730023D7
:1020CC00BB607B6893F82430012B01D10223DCE048
:1020DC007B68012283F824203B685B68062B1CD8A4
:1020EC007B681B68596B3B685A6813469B0013440A
:1020FC00053B1F2202FA03F3DB4319403B681868C7
:10210C003B685A6813469B001344053B00FA03F2E4
:10211C007B681B680A435A633CE03B685B680C2B8A
:10212C001CD87B681B68196B3B685A6813469B006C
:10213C001344233B1F2202FA03F3DB4319403B6891
:10214C0018683B685A6813469B001344233B00FAFB
:10215C0003F27B681B680A431A631BE07B681B68ED
:10216C00D96A3B685A6813469B001344413B1F22B3
:10217C0002FA03F3DB4319403B6818683B685A6862
:10218C0013469B001344413B00FA03F27B681B6827
:10219C000A43DA623B681B68092B1CD97B681B68F5
:1021AC00D9683B681A6813465B0013441E3B072230
:1021BC0002FA03F3DB4319403B6898683B681A68E2
:1021CC0013465B0013441E3B00FA03F27B681B684A
:1021DC000A43DA6019E07B681B6819693B681A6866
:1021EC0013465B001344072202FA03F3DB43194046
:1021FC003B6898683B681A6813465B00134400FA06
:10220C0003F27B681B680A431A613B681B68102B3E
:10221C0003D03B681B68112B32D17B681B681D4AAD
:10222C00934225D17B681B689B6803F40003002B49
:10223C0026D17B681B689A687B681B6842F4000295
:10224C009A603B681B68102B1AD1134B1B68134AFE
:10225C00A2FB03239A0C13469B0013445B00BB6048
:10226C0002E0BB68013BBB60BB68002BF9D107E007
:10227C007B689B6A43F020027B689A620123FB73A4
:10228C007B68002283F82420FB7B18461437BD465C
:10229C0080BC7047002401400000002083DE1B43FB
:1022AC0080B584B000AF78600023FB600023BB6076
:1022BC007B681B689B6803F00103012B40D07B6893
:1022CC001B689A687B681B6842F001029A601F4B7E
:1022DC001B681F4AA2FB03239B0CBB6002E0BB687C
:1022EC00013BBB60BB68002BF9D1FFF7E1FCF86048
:1022FC001FE0FFF7DDFC0246FB68D31A022B18D94E
:10230C007B681B689B6803F00103012B11D07B6871
:10231C009B6A43F010027B689A627B68DB6A43F02D
:10232C0001027B68DA627B68002283F82420012397
:10233C0007E07B681B689B6803F00103012BD8D175
:10234C00002318461037BD4680BD00BF000000209A
:10235C0083DE1B4380B584B000AF78600023FB6044
:10236C007B681B689B6803F00103012B2ED17B68F3
:10237C001B689A687B681B6822F001029A60FFF761
:10238C0097FCF8601BE0FFF793FC0246FB68D31A3E
:10239C00022B14D97B681B689B6803F00103012B8B
:1023AC000DD17B689B6A43F010027B689A627B6854
:1023BC00DB6A43F001027B68DA62012307E07B6889
:1023CC001B689B6803F00103012BDCD0002318462B
:1023DC001037BD4680BD80B584B000AF78607B6897
:1023EC005B6AFB60FB689B6A03F05003002B27D1F0
:1023FC00FB689B6A43F40072FB689A62FB681B687B
:10240C009B6803F46023B3F5602F15D1FB681B7B2D
:10241C00002B11D1FB689B6A23F48072FB689A62D3
:10242C00FB689B6A03F48053002B05D1FB689B6A05
:10243C0043F00102FB689A62F868FFF71DFE04E0A6
:10244C00FB681B6A1B6B7868984700BF1037BD464A
:10245C0080BD80B584B000AF78607B685B6AFB6040
:10246C00F868FFF712FE00BF1037BD4680BD80B57F
:10247C0084B000AF78607B685B6AFB60FB689B6A2A
:10248C0043F04002FB689A62FB68DB6A43F004028B
:10249C00FB68DA62F868FFF701FE00BF1037BD4633
:1024AC0080BD000080B485B000AF78607B6803F01D
:1024BC000703FB600C4BDB68BB60BA684FF6FF038D
:1024CC001340BB60FB681A02BB68134343F0BF6345
:1024DC0043F40033BB60044ABB68D36000BF1437BD
:1024EC00BD4680BC704700BF00ED00E080B400AF7B
:1024FC00044BDB681B0A03F007031846BD4680BC7F
:10250C00704700BF00ED00E080B483B000AF03461D
:10251C00FB7197F90730002B0BDBFB7903F01F02E3
:10252C00064997F907305B09012000FA02F241F8DD
:10253C00232000BF0C37BD4680BC704700E100E093
:10254C0080B483B000AF03463960FB7197F9073054
:10255C00002B0ADB3B68DAB20C4997F90730120101
:10256C00D2B20B4483F800230AE03B68DAB2084984
:10257C00FB7903F00F03043B1201D2B20B441A7621
:10258C0000BF0C37BD4680BC704700BF00E100E0C7
:10259C0000ED00E080B489B000AFF860B9607A60FB
:1025AC00FB6803F00703FB61FB69C3F10703042B12
:1025BC0028BF0423BB61FB690433062B02D9FB69DA
:1025CC00033B00E000237B614FF0FF32BB6902FA52
:1025DC0003F3DA43BB681A407B699A404FF0FF3132
:1025EC007B6901FA03F3D9437B680B40134318460C
:1025FC002437BD4680BC704780B582B000AF786090
:10260C007B68013BB3F1807F01D301230FE00A4AC1
:10261C007B68013B53600F214FF0FF30FFF790FFB9
:10262C00054B00229A60044B07221A6000231846BF
:10263C000837BD4680BD00BF10E000E080B582B019
:10264C0000AF78607868FFF72DFF00BF0837BD46F4
:10265C0080BD80B586B000AF0346B9607A60FB736D
:10266C0000237B61FFF742FF78617A68B96878696B
:10267C00FFF790FF024697F90F3011461846FFF707
:10268C005FFF00BF1837BD4680BD80B582B000AF7C
:10269C000346FB7197F907301846FFF735FF00BF6B
:1026AC000837BD4680BD80B582B000AF78607868D1
:1026BC00FFF7A2FF034618460837BD4680BD000051
:1026CC0080B485B000AF78600023FB607B68002B82
:1026DC0001D1012343E07B681B681A46224B13444B
:1026EC00224AA2FB03231B099A007B681A647B68AD
:1026FC001F4ADA637B68022283F821207B681B68FF
:10270C001B68FB60FB6823F47F5323F03003FB60F2
:10271C007B685A687B689B681A437B68DB681A4342
:10272C007B681B691A437B685B691A437B689B69EE
:10273C001A437B68DB691343FA681343FB607B68BD
:10274C001B68FA681A607B6800229A637B68012216
:10275C0083F821207B68002283F820200023184670
:10276C001437BD4680BC7047F8FFFDBFCDCCCCCC38
:10277C000000024080B586B000AFF860B9607A60A6
:10278C003B600023FB75FB6893F82030012B01D1D3
:10279C0002234BE0FB68012283F82020FB6893F8AE
:1027AC002130DBB2012B3AD1FB68022283F82120C5
:1027BC00FB6800229A63FB681B681A68FB681B683D
:1027CC0022F001021A603B687A68B968F86800F078
:1027DC0037F9FB68DB6A002B08D0FB681B681A68AA
:1027EC00FB681B6842F00E021A600FE0FB681B6866
:1027FC001A68FB681B6822F004021A60FB681B68ED
:10280C001A68FB681B6842F00A021A60FB681B68B6
:10281C001A68FB681B6842F001021A6005E0FB684D
:10282C00002283F820200223FB75FB7D1846183705
:10283C00BD4680BD80B584B000AF78607B68DB6B33
:10284C001B68FB607B681B681B68BB607B681B6C30
:10285C0004229A40FB681340002B4FD0BB6803F056
:10286C000403002B4AD07B681B681B6803F0200311
:10287C00002B07D17B681B681A687B681B6822F0E9
:10288C0004021A607B681B68664A934229D07B68F5
:10289C001B68654A934222D07B681B68634A93424B
:1028AC001AD07B681B68624A934212D07B681B6803
:1028BC00604A93420AD07B681B685F4A934202D1FC
:1028CC004FF480030EE04FF080630BE04FF4802355
:1028DC0008E04FF4804305E04FF4806302E04023AE
:1028EC0000E00423554A53607B68DB6A002B00F040
:1028FC0094807B68DB6A786898478EE07B681B6CF9
:10290C0002229A40FB681340002B56D0BB6803F0A0
:10291C000203002B51D07B681B681B6803F020035B
:10292C00002B0BD17B681B681A687B681B6822F034
:10293C000A021A607B68012283F821207B681B68DD
:10294C00384A934229D07B681B68374A934222D07D
:10295C007B681B68354A93421AD07B681B68344AE3
:10296C00934212D07B681B68324A93420AD07B6830
:10297C001B68314A934202D14FF400130EE04FF022
:10298C0000730BE04FF4003308E04FF4005305E004
:10299C004FF4007302E0202300E00223274A536027
:1029AC007B68002283F820207B689B6A002B34D044
:1029BC007B689B6A786898472FE07B681B6C0822C1
:1029CC009A40FB681340002B28D0BB6803F0080327
:1029DC00002B23D07B681B681A687B681B6822F06D
:1029EC000E021A607B681A6C7B68DB6B012101FAA2
:1029FC0002F25A607B6801229A637B68012283F899
:102A0C0021207B68002283F820207B681B6B002B25
:102A1C0004D07B681B6B7868984700BF00BF1037E9
:102A2C00BD4680BD080002401C0002403000024040
:102A3C0044000240580002406C000240000002407A
:102A4C0080B485B000AFF860B9607A603B60FB6819
:102A5C001A6CFB68DB6B012101FA02F25A60FB680D
:102A6C001B683A685A60FB685B68102B08D1FB68DE
:102A7C001B687A689A60FB681B68BA68DA6007E0C2
:102A8C00FB681B68BA689A60FB681B687A68DA6036
:102A9C0000BF1437BD4680BC7047000080B48BB0BB
:102AAC0000AF7860396000237B6200233B6269E1F0
:102ABC0001227B6A02FA03F3FB613B681B68FA692B
:102ACC001340BB61BA69FB699A4240F058813B687C
:102ADC005B689A4A93425ED0984A934275D8984A5A
:102AEC00934258D0964A93426FD8964A934252D00A
:102AFC00944A934269D8944A93424CD0924A934256
:102B0C0063D8924A934246D0904A93425DD8122B96
:102B1C002AD8122B59D801A252F823F0A32B000863
:102B2C007D2B00088F2B0008D12B0008D72B000819
:102B3C00D72B0008D72B0008D72B0008D72B000861
:102B4C00D72B0008D72B0008D72B0008D72B000851
:102B5C00D72B0008D72B0008D72B0008D72B000841
:102B6C00852B0008992B0008794A934213D02CE04E
:102B7C003B68DB683B6229E03B68DB6804333B6203
:102B8C0024E03B68DB6808333B621FE03B68DB6892
:102B9C000C333B621AE03B689B68002B02D1042388
:102BAC003B6213E03B689B68012B05D108233B6219
:102BBC007B68FA691A6109E008233B627B68FA6951
:102BCC005A6103E000233B6200E000BFBB69FF2BAE
:102BDC0001D87B6801E07B6804337B61BB69FF2B08
:102BEC0002D87B6A9B0002E07B6A083B9B003B613E
:102BFC007B691A680F213B6901FA03F3DB431A4026
:102C0C00396A3B6901FA03F31A437B691A603B6822
:102C1C005B6803F08053002B00F0B1804D4B9B6937
:102C2C004C4A43F0010393614A4B9B6903F0010347
:102C3C00BB60BB68484A7B6A9B08023352F823305E
:102C4C00FB607B6A03F003039B000F2202FA03F381
:102C5C00DB43FA681340FB607B68404A934213D015
:102C6C007B683F4A93420DD07B683E4A934207D023
:102C7C007B683D4A934201D1032306E0042304E020
:102C8C00022302E0012300E000237A6A02F003022F
:102C9C0092009340FA681343FB602F497B6A9B08B0
:102CAC000233FA6841F823203B685B6803F4801315
:102CBC00002B06D02D4B9A682C49BB6913438B60B3
:102CCC0006E02A4B9A68BB69DB43284913408B60AA
:102CDC003B685B6803F40013002B06D0234BDA68C7
:102CEC002249BB691343CB6006E0204BDA68BB6911
:102CFC00DB431E491340CB603B685B6803F4003335
:102D0C00002B06D0194B5A681849BB6913434B600A
:102D1C0006E0164B5A68BB69DB43144913404B6001
:102D2C003B685B6803F48033002B21D00F4B1A688F
:102D3C000E49BB6913430B6021E000BF0000321049
:102D4C0000003110000022100000211000001210B1
:102D5C00000011100010024000000140000801406A
:102D6C00000C01400010014000140140000401401F
:102D7C000B4B1A68BB69DB43094913400B607B6A38
:102D8C0001337B623B681A687B6A22FA03F3002BDF
:102D9C007FF48EAE00BF00BF2C37BD4680BC7047A1
:102DAC000004014080B485B000AF78600B467B8096
:102DBC007B689A687B881340002B02D00123FB733D
:102DCC0001E00023FB73FB7B18461437BD4680BC27
:102DDC00704780B483B000AF78600B467B8013469D
:102DEC007B707B78002B03D07A887B681A6103E0B8
:102DFC007B881A047B681A6100BF0C37BD4680BC07
:102E0C007047000080B584B000AF78607B68002B01
:102E1C0001D101232BE17B6893F83D30DBB2002B11
:102E2C0006D17B68002283F83C207868FEF782FD8F
:102E3C007B68242283F83D207B681B681A687B68BA
:102E4C001B6822F001021A607B681B681A687B6899
:102E5C001B6842F400421A607B681B681A687B6826
:102E6C001B6822F400421A6001F032F8F8607B68AB
:102E7C005B68814A934207D8FB68804A934294BFAF
:102E8C0001230023DBB206E0FB687D4A934294BF2A
:102E9C0001230023DBB2002B01D00123E7E0FB6808
:102EAC00784AA2FB03239B0CBB607B681B685B68A6
:102EBC0023F03F017B681B68BA680A435A607B6841
:102ECC001B681B6A23F03F017B685B686A4A93426C
:102EDC0002D8BB68013309E0BB684FF4967202FB61
:102EEC0003F3694AA2FB03239B0901337A68126836
:102EFC000B4313627B681B68DB6923F44F4222F09F
:102F0C00FF027B685B685C498B4219D8FB68591ED1
:102F1C007B685B685B00B1FBF3F3591C40F6FC73F8
:102F2C000B40002B0AD0FB68591E7B685B685B006A
:102F3C00B1FBF3F30133C3F30B0351E004234FE074
:102F4C007B689B68002B11D1FB68581E7B68596805
:102F5C000B465B000B44B0FBF3F30133C3F30B03E1
:102F6C00002B0CBF01230023DBB212E0FB68581EC0
:102F7C007B6859680B469B000B4499000B44B0FBD3
:102F8C00F3F30133C3F30B03002B0CBF012300231A
:102F9C00DBB2002B01D0012322E07B689B68002B65
:102FAC000ED1FB68581E7B6859680B465B000B44BE
:102FBC00B0FBF3F30133C3F30B0343F400430FE013
:102FCC00FB68581E7B6859680B469B000B449900A4
:102FDC000B44B0FBF3F30133C3F30B0343F4404353
:102FEC00796809681343CB617B681B681B6823F005
:102FFC00C0017B68DA697B681B6A1A437B681B68B3
:10300C000A431A607B681B689B6823F4034323F014
:10301C00FF037A6811697A68D26811437A6812687A
:10302C000B4393607B681B68DB6823F0FF017B68B4
:10303C005A697B689B691A437B681B680A43DA6090
:10304C007B681B681A687B681B6842F001021A6077
:10305C007B6800221A647B68202283F83D207B6801
:10306C0000221A637B68002283F83E200023184656
:10307C001037BD4680BD00BFA08601007F841E00B6
:10308C00FF083D0083DE1B43D34D621080B588B032
:10309C0002AFF8607A601A460B467B8113463B817F
:1030AC00FEF706FE7861FB6893F83D30DBB2202B0F
:1030BC0040F0E0807B690093192301227049F86885
:1030CC0000F064F90346002B01D00223D3E0FB6827
:1030DC0093F83C30012B01D10223CCE0FB68012298
:1030EC0083F83C20FB681B681B6803F00103012B71
:1030FC0007D0FB681B681A68FB681B6842F001026A
:10310C001A60FB681B681A68FB681B6822F4006273
:10311C001A60FB68212283F83D20FB68102283F89B
:10312C003E20FB6800221A64FB687A685A62FB68CE
:10313C003A895A85FB685B8D9AB2FB681A85FB68E5
:10314C00504ADA6279897B693A6AF86800F09CF82F
:10315C000346002B01D001238DE000233B61FB686B
:10316C001B685B693B61FB681B689B693B613B6946
:10317C0066E07A69396AF86800F022FA0346002B97
:10318C000DD0FB681B6C042B07D1FB681B681A68FD
:10319C00FB681B6842F400721A6001236BE0FB6849
:1031AC005B6A1A78FB681B681A61FB685B6A5A1CBD
:1031BC00FB685A62FB685B8D9BB2013B9AB2FB6861
:1031CC005A85FB681B8D013B9AB2FB681A85FB681C
:1031DC001B685B6903F00403042B1BD1FB681B8D7C
:1031EC00002B17D0FB685B6A1A78FB681B681A61A6
:1031FC00FB685B6A5A1CFB685A62FB685B8D9BB26E
:10320C00013B9AB2FB685A85FB681B8D013B9AB255
:10321C00FB681A857A69396AF86800F019FA03466E
:10322C00002B0DD0FB681B6C042B07D1FB681B68B3
:10323C001A68FB681B6842F400721A6001231AE0DA
:10324C00FB681B8D002B94D1FB681B681A68FB680C
:10325C001B6842F400721A60FB68202283F83D2040
:10326C00FB68002283F83E20FB68002283F83C2098
:10327C00002300E0022318461837BD4680BD00BF6E
:10328C00020010000000FFFF80B588B002AFF860AC
:10329C007A603B600B467B81FB68DB6A7B617B69F8
:1032AC00082B06D07B69012B03D07B6913F5803F7B
:1032BC0008D1FB681B681A68FB681B6842F48072B3
:1032CC001A600BE0FB681B6B122B07D1FB681B68A9
:1032DC001A68FB681B6842F480721A603B680093A2
:1032EC007B6800224FF00111F86800F04FF803469C
:1032FC00002B0DD0FB681B681B6803F48073B3F5BF
:10330C00807F03D1FB684FF400721A64032335E00D
:10331C00FB681B69B3F5804F08D17B89DBB21A4679
:10332C00FB681B6802F0FE021A611BE07B89DB1153
:10333C00DBB203F00603DBB263F00F03DAB2FB6817
:10334C001B681A613B687A680E49F86800F098F8B7
:10335C000346002B01D0012310E07B89DAB2FB6815
:10336C001B681A613B687A680749F86800F088F8AE
:10337C000346002B01D0012300E000231846183728
:10338C00BD4680BD080001000200010080B584B07C
:10339C0000AFF860B9603B601346FB7148E03B68D6
:1033AC00B3F1FF3F44D0FEF783FC0246BB69D31A4E
:1033BC003A689A4202D33B68002B39D1BB681B0C8C
:1033CC00DBB2012B0DD1FB681B685B69DA43BB6870
:1033DC0013409BB2002B0CBF01230023DBB21A4617
:1033EC000CE0FB681B689B69DA43BB6813409BB21B
:1033FC00002B0CBF01230023DBB21A46FB799A4247
:10340C0016D1FB6800221A63FB68202283F83D204A
:10341C00FB68002283F83E20FB681B6C43F0200203
:10342C00FB681A64FB68002283F83C20012323E02C
:10343C00BB681B0CDBB2012B0DD1FB681B685B69F5
:10344C00DA43BB6813409BB2002B0CBF0123002353
:10345C00DBB21A460CE0FB681B689B69DA43BB685D
:10346C0013409BB2002B0CBF01230023DBB21A4686
:10347C00FB799A4293D0002318461037BD4680BD85
:10348C0080B584B000AFF860B9607A603B6071E0E1
:10349C00FB681B685B6903F48063B3F5806F23D111
:1034AC00FB681B681A68FB681B6842F400721A60A0
:1034BC00FB681B686FF480625A61FB6800221A6318
:1034CC00FB68202283F83D20FB68002283F83E2015
:1034DC00FB681B6C43F00402FB681A64FB68002257
:1034EC0083F83C20012367E07B68B3F1FF3F41D0B8
:1034FC00FEF7DEFB02463B68D31A7A689A4202D387
:10350C007B68002B36D1BB681B0CDBB2012B0CD1BA
:10351C00FB681B685B69DA43BB6813409BB2002BEA
:10352C0014BF01230023DBB20BE0FB681B689B6913
:10353C00DA43BB6813409BB2002B14BF012300235A
:10354C00DBB2002B16D0FB6800221A63FB6820222A
:10355C0083F83D20FB68002283F83E20FB681B6C3F
:10356C0043F02002FB681A64FB68002283F83C20BD
:10357C00012321E0BB681B0CDBB2012B0CD1FB68D7
:10358C001B685B69DA43BB6813409BB2002B14BF0A
:10359C0001230023DBB20BE0FB681B689B69DA4359
:1035AC00BB6813409BB2002B14BF01230023DBB27A
:1035BC00002B7FF46DAF002318461037BD4680BD3D
:1035CC0080B584B000AFF860B9607A6034E0F86818
:1035DC0000F086F80346002B01D0012334E0BB68D1
:1035EC00B3F1FF3F28D0FEF763FB02467B68D31A8A
:1035FC00BA689A4202D3BB68002B1DD1FB681B68CA
:10360C005B6903F08003802B16D0FB6800221A63E1
:10361C00FB68202283F83D20FB68002283F83E20C3
:10362C00FB681B6C43F02002FB681A64FB680022E9
:10363C0083F83C20012307E0FB681B685B6903F0FF
:10364C008003802BC3D1002318461037BD4680BDA4
:10365C0080B584B000AFF860B9607A6034E0F86887
:10366C0000F03EF80346002B01D0012334E0BB6888
:10367C00B3F1FF3F28D0FEF71BFB02467B68D31A41
:10368C00BA689A4202D3BB68002B1DD1FB681B6839
:10369C005B6903F00403042B16D0FB6800221A6349
:1036AC00FB68202283F83D20FB68002283F83E2033
:1036BC00FB681B6C43F02002FB681A64FB68002259
:1036CC0083F83C20012307E0FB681B685B6903F06F
:1036DC000403042BC3D1002318461037BD4680BD0C
:1036EC0080B483B000AF78607B681B685B6903F4BF
:1036FC008063B3F5806F1BD17B681B686FF48062AD
:10370C005A617B6800221A637B68202283F83D2073
:10371C007B68002283F83E207B681B6C43F004021C
:10372C007B681A647B68002283F83C20012300E04C
:10373C00002318460C37BD4680BC704780B586B058
:10374C0000AF78607B68002B01D1012372E27B68AB
:10375C001B6803F00103002B00F08780924B5B6821
:10376C0003F00C03042B0CD08F4B5B6803F00C03A1
:10377C00082B12D18C4B5B6803F48033B3F5803F7C
:10378C000BD1894B1B6803F40033002B6CD07B6886
:10379C005B68002B68D101234CE27B685B68B3F556
:1037AC00803F06D1804B1B687F4A43F48033136003
:1037BC002EE07B685B68002B0CD17B4B1B687A4A34
:1037CC0023F480331360784B1B68774A23F48023EF
:1037DC0013601DE07B685B68B3F5A02F0CD1724BB6
:1037EC001B68714A43F4802313606F4B1B686E4A4D
:1037FC0043F4803313600BE06B4B1B686A4A23F471
:10380C0080331360684B1B68674A23F48023136072
:10381C007B685B68002B13D0FEF74AFA386108E02E
:10382C00FEF746FA02463B69D31A642B01D90323EF
:10383C0000E25D4B1B6803F40033002BF0D014E066
:10384C00FEF736FA386108E0FEF732FA02463B69B9
:10385C00D31A642B01D90323ECE1534B1B6803F4FB
:10386C000033002BF0D100E000BF7B681B6803F035
:10387C000203002B63D04C4B5B6803F00C03002B52
:10388C000BD0494B5B6803F00C03082B1CD1464B47
:10389C005B6803F48033002B16D1434B1B6803F099
:1038AC000203002B05D07B681B69012B01D001237F
:1038BC00C0E13D4B1B6823F0F8027B685B69DB00C1
:1038CC00394913430B603AE07B681B69002B20D00D
:1038DC00364B01221A60FEF7EBF9386108E0FEF76F
:1038EC00E7F902463B69D31A022B01D90323A1E164
:1038FC002D4B1B6803F00203002BF0D02A4B1B68E6
:10390C0023F0F8027B685B69DB00274913430B60EB
:10391C0015E0264B00221A60FEF7CAF9386108E060
:10392C00FEF7C6F902463B69D31A022B01D90323D1
:10393C0080E11D4B1B6803F00203002BF0D17B6868
:10394C001B6803F00803002B3AD07B689B69002BA3
:10395C0019D0174B01221A60FEF7AAF9386108E05A
:10396C00FEF7A6F902463B69D31A022B01D90323B1
:10397C0060E10D4B5B6A03F00203002BF0D00120D9
:10398C0000F0BAFA1CE00A4B00221A60FEF790F91C
:10399C0038610FE0FEF78CF902463B69D31A022B13
:1039AC0008D9032346E100BF001002400000424248
:1039BC0080044242924B5B6A03F00203002BE9D174
:1039CC007B681B6803F00403002B00F0A680002327
:1039DC00FB758B4BDB6903F08053002B0DD1884BAF
:1039EC00DB69874A43F08053D361854BDB6903F075
:1039FC008053BB60BB680123FB75824B1B6803F4CF
:103A0C008073002B18D17F4B1B687E4A43F4807364
:103A1C001360FEF74DF9386108E0FEF749F90246EC
:103A2C003B69D31A642B01D9032303E1754B1B6843
:103A3C0003F48073002BF0D07B68DB68012B06D17C
:103A4C006F4B1B6A6E4A43F0010313622DE07B68D7
:103A5C00DB68002B0CD16A4B1B6A694A23F001030B
:103A6C001362674B1B6A664A23F0040313621CE063
:103A7C007B68DB68052B0CD1614B1B6A604A43F0F9
:103A8C00040313625E4B1B6A5D4A43F0010313622D
:103A9C000BE05B4B1B6A5A4A23F001031362584B31
:103AAC001B6A574A23F0040313627B68DB68002B04
:103ABC0015D0FEF7FDF838610AE0FEF7F9F802467A
:103ACC003B69D31A41F28832934201D90323B1E006
:103ADC004B4B1B6A03F00203002BEED014E0FEF7F5
:103AEC00E7F838610AE0FEF7E3F802463B69D31ABF
:103AFC0041F28832934201D903239BE0404B1B6A6D
:103B0C0003F00203002BEED1FB7D012B05D13C4BC6
:103B1C00DB693B4A23F08053D3617B68DB69002B64
:103B2C0000F08780364B5B6803F00C03082B61D0E8
:103B3C007B68DB69022B46D1334B00221A60FEF7FF
:103B4C00B7F8386108E0FEF7B3F802463B69D31AC0
:103B5C00022B01D903236DE0294B1B6803F0007382
:103B6C00002BF0D17B681B6AB3F5803F08D1244B46
:103B7C005B6823F400327B689B68214913434B60DC
:103B8C001F4B5B6823F474127B68196A7B685B6A51
:103B9C000B431B4913434B601B4B01221A60FEF76E
:103BAC0087F8386108E0FEF783F802463B69D31AC0
:103BBC00022B01D903233DE0114B1B6803F000736A
:103BCC00002BF0D035E0104B00221A60FEF770F895
:103BDC00386108E0FEF76CF802463B69D31A022BF9
:103BEC0001D9032326E0064B1B6803F00073002B5E
:103BFC00F0D11EE07B68DB69012B07D1012319E0B2
:103C0C000010024000700040600042420B4B5B68A9
:103C1C00FB60FB6803F480327B681B6A9A4206D116
:103C2C00FB6803F470127B685B6A9A4201D0012333
:103C3C0000E0002318461837BD4680BD0010024036
:103C4C0080B584B000AF786039607B68002B01D1FF
:103C5C000123D0E06A4B1B6803F007033A689A42D1
:103C6C0010D9674B1B6823F0070265493B68134367
:103C7C000B60634B1B6803F007033A689A4201D050
:103C8C000123B8E07B681B6803F00203002B20D0F3
:103C9C007B681B6803F00403002B05D0594B5B6851
:103CAC00584A43F4E06353607B681B6803F00803D5
:103CBC00002B05D0534B5B68524A43F4605353605E
:103CCC00504B5B6823F0F0027B689B684D491343B3
:103CDC004B607B681B6803F00103002B40D07B68B2
:103CEC005B68012B07D1474B1B6803F40033002B97
:103CFC0015D101237FE07B685B68022B07D1414B18
:103D0C001B6803F00073002B09D1012373E03D4BBA
:103D1C001B6803F00203002B01D101236BE0394B2C
:103D2C005B6823F003027B685B68364913434B6086
:103D3C00FDF7BEFFF8600AE0FDF7BAFF0246FB682C
:103D4C00D31A41F28832934201D9032353E02D4B0D
:103D5C005B6803F00C027B685B689B009A42EBD1BA
:103D6C00274B1B6803F007033A689A4210D2244B86
:103D7C001B6823F0070222493B6813430B60204B5E
:103D8C001B6803F007033A689A4201D0012332E022
:103D9C007B681B6803F00403002B08D0194B5B688D
:103DAC0023F4E0627B68DB68164913434B607B6845
:103DBC001B6803F00803002B09D0124B5B6823F43B
:103DCC0060527B681B69DB000E4913434B6000F0AB
:103DDC0021F802460B4B5B681B0903F00F030A49E1
:103DEC00CB5C22FA03F3094A1360094B1B68184693
:103DFC00FDF71CFF002318461037BD4680BD00BFE1
:103E0C0000200240001002408455000800000020F1
:103E1C000400002080B487B000AF0023FB600023B7
:103E2C00BB6000237B6100237B6000233B611E4B46
:103E3C005B68FB60FB6803F00C03042B02D0082BBF
:103E4C0003D027E0194B3B6127E0FB689B0C03F088
:103E5C000F03174AD35C7B60FB6803F48033002BA1
:103E6C0010D0114B5B685B0C03F00103114AD35C5F
:103E7C00BB607B680D4A03FB02F2BB68B2FBF3F339
:103E8C007B6104E07B680C4A02FB03F37B617B697A
:103E9C003B6102E0054B3B6100BF3B6918461C3798
:103EAC00BD4680BC704700BF0010024000127A0073
:103EBC009C550008AC55000800093D0080B400AFCB
:103ECC00024B1B681846BD4680BC704700000020A2
:103EDC0080B500AFFFF7F2FF0246054B5B681B0A8B
:103EEC0003F007030349CB5C22FA03F3184680BDA9
:103EFC00001002409455000880B485B000AF786083
:103F0C000A4B1B680A4AA2FB03235B0A7A6802FB72
:103F1C0003F3FB6000BFFB685A1EFA60002BF9D15B
:103F2C0000BF00BF1437BD4680BC704700000020A6
:103F3C00D34D621080B586B000AF786000233B6132
:103F4C000023FB607B681B6803F00103002B7DD012
:103F5C000023FB754F4BDB6903F08053002B0DD115
:103F6C004C4BDB694B4A43F08053D361494BDB69C3
:103F7C0003F08053BB60BB680123FB75464B1B6889
:103F8C0003F48073002B18D1434B1B68424A43F453
:103F9C0080731360FDF78CFE386108E0FDF788FE36
:103FAC0002463B69D31A642B01D903236DE03A4BCB
:103FBC001B6803F48073002BF0D0364B1B6A03F4A0
:103FCC004073FB60FB68002B2ED07B685B6803F4AE
:103FDC004073FA689A4227D02E4B1B6A23F4407325
:103FEC00FB602E4B01221A602C4B00221A60294ACE
:103FFC00FB681362FB6803F00103002B14D0FDF780
:10400C0057FE38610AE0FDF753FE02463B69D31AAE
:10401C0041F28832934201D9032336E01D4B1B6ACF
:10402C0003F00203002BEED01A4B1B6A23F44072F0
:10403C007B685B68174913430B62FB7D012B05D131
:10404C00144BDB69134A23F08053D3617B681B68E4
:10405C0003F00203002B08D00E4B5B6823F44042A4
:10406C007B689B680B4913434B607B681B6803F0B0
:10407C001003002B08D0074B5B6823F480027B688D
:10408C00DB68044913434B60002318461837BD46C0
:10409C0080BD00BF0010024000700040400442424E
:1040AC0080B582B000AF78607B68002B01D1012312
:1040BC0041E07B6893F83D30DBB2002B06D17B6886
:1040CC00002283F83C207868FDF772FC7B680222A2
:1040DC0083F83D207B681A687B68043319461046C8
:1040EC0000F0D6FD7B68012283F846207B68012214
:1040FC0083F83E207B68012283F83F207B680122F5
:10410C0083F840207B68012283F841207B680122E0
:10411C0083F842207B68012283F843207B680122CC
:10412C0083F844207B68012283F845207B680122B8
:10413C0083F83D20002318460837BD4680BD80B566
:10414C0082B000AF78607B68002B01D1012341E085
:10415C007B6893F83D30DBB2002B06D17B680022E4
:10416C0083F83C20786800F039F87B68022283F8E9
:10417C003D207B681A687B6804331946104600F0B2
:10418C0087FD7B68012283F846207B68012283F837
:10419C003E207B68012283F83F207B68012283F854
:1041AC0040207B68012283F841207B68012283F840
:1041BC0042207B68012283F843207B68012283F82C
:1041CC0044207B68012283F845207B68012283F818
:1041DC003D20002318460837BD4680BD80B483B00F
:1041EC0000AF786000BF0C37BD4680BC7047000044
:1041FC0080B584B000AF786039603B68002B09D182
:10420C007B6893F83E30DBB2012B14BF01230023F3
:10421C00DBB222E03B68042B09D17B6893F83F307A
:10422C00DBB2012B14BF01230023DBB215E03B688A
:10423C00082B09D17B6893F84030DBB2012B14BFFB
:10424C0001230023DBB208E07B6893F84130DBB23A
:10425C00012B14BF01230023DBB2002B01D001235F
:10426C005EE03B68002B04D17B68022283F83E2081
:10427C0013E03B68042B04D17B68022283F83F20B7
:10428C000BE03B68082B04D17B68022283F84020AA
:10429C0003E07B68022283F841207B681B680122C3
:1042AC003968184601F081F87B681B681E4A9342F6
:1042BC0007D17B681B685A6C7B681B6842F4004210
:1042CC005A647B681B68184A93420ED07B681B6843
:1042DC00B3F1804F09D07B681B68144A934204D019
:1042EC007B681B68124A934211D17B681B689B68E0
:1042FC0003F00703FB60FB68062B10D07B681B6880
:10430C001A687B681B6842F001021A6007E07B6840
:10431C001B681A687B681B6842F001021A60002354
:10432C0018461037BD4680BD002C014000040040EB
:10433C000008004080B582B000AF78607B68002B2D
:10434C0001D1012341E07B6893F83D30DBB2002BB7
:10435C0006D17B68002283F83C20786800F039F89D
:10436C007B68022283F83D207B681A687B680433E3
:10437C001946104600F08CFC7B68012283F846201D
:10438C007B68012283F83E207B68012283F83F2062
:10439C007B68012283F840207B68012283F841204E
:1043AC007B68012283F842207B68012283F843203A
:1043BC007B68012283F844207B68012283F8452026
:1043CC007B68012283F83D20002318460837BD4640
:1043DC0080BD80B483B000AF786000BF0C37BD46A1
:1043EC0080BC704780B584B000AF786039603B68A2
:1043FC00002B04D17B6893F83E30DBB213E03B68B2
:10440C00042B04D17B6893F83F30DBB20BE03B68A4
:10441C00082B04D17B6893F84030DBB203E07B6857
:10442C0093F84130DBB2FB733B68002B04D17B6803
:10443C0093F84230DBB213E03B68042B04D17B6869
:10444C0093F84330DBB20BE03B68082B04D17B685C
:10445C0093F84430DBB203E07B6893F84530DBB271
:10446C00BB73FB7B012B02D1BB7B012B01D0012346
:10447C006DE03B68002B04D17B68022283F83E2060
:10448C0013E03B68042B04D17B68022283F83F20A5
:10449C000BE03B68082B04D17B68022283F8402098
:1044AC0003E07B68022283F841203B68002B04D197
:1044BC007B68022283F8422013E03B68042B04D172
:1044CC007B68022283F843200BE03B68082B04D165
:1044DC007B68022283F8442003E07B68022283F885
:1044EC0045207B681B6801223968184600F05DFF87
:1044FC007B681B68184A93420ED07B681B68B3F12B
:10450C00804F09D07B681B68144A934204D07B68A7
:10451C001B68134A934211D17B681B689B6803F09C
:10452C000703BB60BB68062B10D07B681B681A683E
:10453C007B681B6842F001021A6007E07B681B680D
:10454C001A687B681B6842F001021A600023184647
:10455C001037BD4680BD00BF002C01400004004058
:10456C000008004080B582B000AF78607B681B68A3
:10457C001B6903F00203022B22D17B681B68DB68EA
:10458C0003F00203022B1BD17B681B686FF0020245
:10459C001A617B6801221A777B681B689B6903F0A0
:1045AC000303002B03D07868FCF7D6FC05E0786891
:1045BC0000F053FB786800F059FB7B6800221A77F7
:1045CC007B681B681B6903F00403042B22D17B68F6
:1045DC001B68DB6803F00403042B1BD17B681B688E
:1045EC006FF004021A617B6802221A777B681B68E1
:1045FC009B6903F44073002B03D07868FCF7ACFC88
:10460C0005E0786800F029FB786800F02FFB7B68E8
:10461C0000221A777B681B681B6903F00803082BC0
:10462C0022D17B681B68DB6803F00803082B1BD1C5
:10463C007B681B686FF008021A617B6804221A778A
:10464C007B681B68DB6903F00303002B03D07868DD
:10465C00FCF782FC05E0786800F0FFFA786800F05F
:10466C0005FB7B6800221A777B681B681B6903F0CB
:10467C001003102B22D17B681B68DB6803F010033E
:10468C00102B1BD17B681B686FF010021A617B68C2
:10469C0008221A777B681B68DB6903F44073002BD4
:1046AC0003D07868FCF758FC05E0786800F0D5FA80
:1046BC00786800F0DBFA7B6800221A777B681B684D
:1046CC001B6903F00103012B0ED17B681B68DB68AF
:1046DC0003F00103012B07D17B681B686FF001020B
:1046EC001A61786800F0B0FA7B681B681B6903F0EC
:1046FC008003802B0ED17B681B68DB6803F0800382
:10470C00802B07D17B681B686FF080021A61786878
:10471C0000F0D7FE7B681B681B6903F04003402B3D
:10472C000ED17B681B68DB6803F04003402B07D17C
:10473C007B681B686FF040021A61786800F09FFA82
:10474C007B681B681B6903F02003202B0ED17B6850
:10475C001B68DB6803F02003202B07D17B681B68E8
:10476C006FF020021A61786800F0A2FE00BF0837D3
:10477C00BD4680BD80B586B000AFF860B9607A6088
:10478C000023FB75FB6893F83C30012B01D102230D
:10479C0088E0FB68012283F83C207B68002B1BD14E
:1047AC00FB681868BB681968BB685A68BB68DB682B
:1047BC0000F058FCFB681B689A69FB681B6822F0C8
:1047CC000C029A61FB681B689969BB689A68FB6864
:1047DC001B680A439A6160E07B68042B1CD1FB6860
:1047EC001868BB681968BB685A68BB68DB6800F05E
:1047FC00C1FCFB681B689A69FB681B6822F4406269
:10480C009A61FB681B689969BB689B681A02FB6814
:10481C001B680A439A6140E07B68082B1BD1FB683C
:10482C001868BB681968BB685A68BB68DB6800F01D
:10483C000CFDFB681B68DA69FB681B6822F00C0234
:10484C00DA61FB681B68D969BB689A68FB681B68EE
:10485C000A43DA6121E07B680C2B1CD1FB681868D9
:10486C00BB681968BB685A68BB68DB6800F028FD38
:10487C00FB681B68DA69FB681B6822F44062DA612A
:10488C00FB681B68D969BB689B681A02FB681B68CC
:10489C000A43DA6101E00123FB75FB68002283F80F
:1048AC003C20FB7D18461837BD4680BD80B586B0D0
:1048BC0000AFF860B9607A600023FB75FB6893F871
:1048CC003C30012B01D10223AEE0FB68012283F8BE
:1048DC003C207B680C2B00F29F8001A252F823F045
:1048EC0021490008254A0008254A0008254A0008E5
:1048FC0061490008254A0008254A0008254A000895
:10490C00A3490008254A0008254A0008254A000842
:10491C00E3490008FB681B68B968184600F01AFAEE
:10492C00FB681B689A69FB681B6842F008029A6175
:10493C00FB681B689A69FB681B6822F004029A6189
:10494C00FB681B689969BB681A69FB681B680A439A
:10495C009A6164E0FB681B68B968184600F060FA5D
:10496C00FB681B689A69FB681B6842F400629A61D9
:10497C00FB681B689A69FB681B6822F480629A6169
:10498C00FB681B689969BB681B691A02FB681B688A
:10499C000A439A6143E0FB681B68B968184600F04B
:1049AC00A9FAFB681B68DA69FB681B6842F008020D
:1049BC00DA61FB681B68DA69FB681B6822F0040289
:1049CC00DA61FB681B68D969BB681A69FB681B68EC
:1049DC000A43DA6123E0FB681B68B968184600F0EB
:1049EC00F3FAFB681B68DA69FB681B6842F4006227
:1049FC00DA61FB681B68DA69FB681B6822F4806269
:104A0C00DA61FB681B68D969BB681B691A02FB6811
:104A1C001B680A43DA6102E00123FB7500BFFB68E7
:104A2C00002283F83C20FB7D18461837BD4680BD1C
:104A3C0080B584B000AF786039600023FB737B686D
:104A4C0093F83C30012B01D10223B4E07B680122A6
:104A5C0083F83C207B68022283F83D207B681B682E
:104A6C009B68BB60BB6823F07703BB60BB6823F417
:104A7C007F43BB607B681B68BA689A603B681B68A5
:104A8C00B3F5005F3ED0B3F5005F00F28780B3F55D
:104A9C00805F00F08680B3F5805F7FD8702B1AD0D2
:104AAC00702B7BD8602B50D0602B77D8502B3CD000
:104ABC00502B73D8402B58D0402B6FD8302B64D050
:104ACC00302B6BD8202B60D0202B67D8002B5CD0E0
:104ADC00102B5AD062E07B6818683B6899683B6879
:104AEC005A683B68DB6800F041FC7B681B689B687C
:104AFC00BB60BB6843F07703BB607B681B68BA681C
:104B0C009A604FE07B6818683B6899683B685A6804
:104B1C003B68DB6800F02AFC7B681B689A687B6842
:104B2C001B6842F480429A603CE07B6818683B68E2
:104B3C0059683B68DB681A4600F0EEFA7B681B6824
:104B4C005021184600F0F8FB2CE07B6818683B6895
:104B5C0059683B68DB681A4600F048FB7B681B68A9
:104B6C006021184600F0E8FB1CE07B6818683B6885
:104B7C0059683B68DB681A4600F0CEFA7B681B6804
:104B8C004021184600F0D8FB0CE07B681A683B68A3
:104B9C001B681946104600F0CFFB03E00123FB73A2
:104BAC0000E000BF7B68012283F83D207B68002277
:104BBC0083F83C20FB7B18461037BD4680BD0000B7
:104BCC0080B485B000AF786039600023FB603B682F
:104BDC000C2B31D801A252F823F000BF1D4C000859
:104BEC00454C0008454C0008454C0008274C000873
:104BFC00454C0008454C0008454C0008314C000859
:104C0C00454C0008454C0008454C00083B4C00083E
:104C1C007B681B685B6BFB600FE07B681B689B6BA6
:104C2C00FB600AE07B681B68DB6BFB6005E07B6864
:104C3C001B681B6CFB6000E000BFFB681846143758
:104C4C00BD4680BC704700BF80B483B000AF7860B5
:104C5C0000BF0C37BD4680BC704780B483B000AF3A
:104C6C00786000BF0C37BD4680BC704780B483B001
:104C7C0000AF786000BF0C37BD4680BC704780B475
:104C8C0083B000AF786000BF0C37BD4680BC704766
:104C9C0080B485B000AF786039607B681B68FB60BE
:104CAC007B68294A93420BD07B68B3F1804F07D0C5
:104CBC007B68264A934203D07B68254A934208D1ED
:104CCC00FB6823F07003FB603B685B68FA68134376
:104CDC00FB607B681C4A93420BD07B68B3F1804F1E
:104CEC0007D07B68194A934203D07B68184A9342D9
:104CFC0008D1FB6823F44073FB603B68DB68FA68FF
:104D0C001343FB60FB6823F080023B685B69134331
:104D1C00FB607B68FA681A603B689A687B68DA62A9
:104D2C003B681A687B689A627B68074A934203D196
:104D3C003B681A697B681A637B6801225A6100BF61
:104D4C001437BD4680BC7047002C01400004004065
:104D5C000008004080B487B000AF786039607B6891
:104D6C001B6A7B617B681B6A23F001027B681A62F9
:104D7C007B685B683B617B689B69FB60FB6823F02D
:104D8C007003FB60FB6823F00303FB603B681B684C
:104D9C00FA681343FB607B6923F002037B613B6879
:104DAC009B687A6913437B617B681C4A93420CD1E4
:104DBC007B6923F008037B613B68DB687A691343EA
:104DCC007B617B6923F004037B617B68134A93420C
:104DDC0011D13B6923F480733B613B6923F400736D
:104DEC003B613B685B693A6913433B613B689B6978
:104DFC003A6913433B617B683A695A607B68FA688D
:104E0C009A613B685A687B685A637B687A691A6254
:104E1C0000BF1C37BD4680BC704700BF002C014052
:104E2C0080B487B000AF786039607B681B6A7B61A7
:104E3C007B681B6A23F010027B681A627B685B68D4
:104E4C003B617B689B69FB60FB6823F4E043FB6080
:104E5C00FB6823F44073FB603B681B681B02FA6819
:104E6C001343FB607B6923F020037B613B689B68E9
:104E7C001B017A6913437B617B681D4A93420DD1F8
:104E8C007B6923F080037B613B68DB681B017A69DB
:104E9C0013437B617B6923F040037B617B68144A7D
:104EAC00934213D13B6923F480633B613B6923F448
:104EBC0000633B613B685B699B003A6913433B6150
:104ECC003B689B699B003A6913433B617B683A6979
:104EDC005A607B68FA689A613B685A687B689A6387
:104EEC007B687A691A6200BF1C37BD4680BC70476C
:104EFC00002C014080B487B000AF786039607B68CB
:104F0C001B6A7B617B681B6A23F480727B681A6264
:104F1C007B685B683B617B68DB69FB60FB6823F04B
:104F2C007003FB60FB6823F00303FB603B681B68AA
:104F3C00FA681343FB607B6923F400737B613B6865
:104F4C009B681B027A6913437B617B681D4A934201
:104F5C000DD17B6923F400637B613B68DB681B022A
:104F6C007A6913437B617B6923F480637B617B6883
:104F7C00144A934213D13B6923F480533B613B6940
:104F8C0023F400533B613B685B691B013A69134393
:104F9C003B613B689B691B013A6913433B617B682E
:104FAC003A695A607B68FA68DA613B685A687B68D0
:104FBC00DA637B687A691A6200BF1C37BD4680BC15
:104FCC00704700BF002C014080B487B000AF786000
:104FDC0039607B681B6A3B617B681B6A23F48052D7
:104FEC007B681A627B685B687B617B68DB69FB6052
:104FFC00FB6823F4E043FB60FB6823F44073FB6025
:10500C003B681B681B02FA681343FB603B6923F483
:10501C0000533B613B689B681B033A6913433B613C
:10502C007B680F4A934209D17B6923F480437B61EF
:10503C003B685B699B017A6913437B617B687A6986
:10504C005A607B68FA68DA613B685A687B681A6454
:10505C007B683A691A6200BF1C37BD4680BC70473A
:10506C00002C014080B487B000AFF860B9607A6062
:10507C003B60FB681B6A3B61FB681B6A23F0010207
:10508C00FB681A62FB689B697B61FB681F4A934251
:10509C000BD0FB68B3F1804F07D0FB681C4A9342DE
:1050AC0003D0FB681B4A934201D1012300E000238B
:1050BC00002B08D07B6923F003037B617A697B6842
:1050CC0013437B6103E07B6943F001037B617B69E4
:1050DC0023F0F0037B613B681B01DBB27A6913435D
:1050EC007B613B6923F00A033B61BB6803F00A0355
:1050FC003A6913433B61FB687A699A61FB683A69C8
:10510C001A6200BF1C37BD4680BC7047002C0140A2
:10511C00000400400008004080B487B000AFF86085
:10512C00B9607A60FB681B6A7B61FB681B6A23F0C1
:10513C000102FB681A62FB689B693B613B6923F0C7
:10514C00F0033B617B681B013A6913433B617B694C
:10515C0023F00A037B617A69BB6813437B61FB68AC
:10516C003A699A61FB687A691A6200BF1C37BD46BE
:10517C0080BC704780B487B000AFF860B9607A60CB
:10518C003B60FB681B6A7B61FB681B6A23F01002A7
:10519C00FB681A62FB689B693B613B6923F44073B3
:1051AC003B617B681B023A6913433B613B6923F407
:1051BC0070433B613B681B039BB23A6913433B61F1
:1051CC007B6923F0A0037B61BB681B0103F0A00388
:1051DC007A6913437B61FB683A699A61FB687A6967
:1051EC001A6200BF1C37BD4680BC704780B487B0C4
:1051FC0000AFF860B9607A60FB681B6A7B61FB6882
:10520C001B6A23F01002FB681A62FB689B693B6106
:10521C003B6923F470433B617B681B033A6913437E
:10522C003B617B6923F0A0037B61BB681B017A693E
:10523C0013437B61FB683A699A61FB687A691A626D
:10524C0000BF1C37BD4680BC704780B487B000AF30
:10525C00F860B9607A603B60FB681B6A7B61FB6835
:10526C001B6A23F48072FB681A62FB68DB693B6182
:10527C003B6923F003033B613A697B6813433B6151
:10528C003B6923F0F0033B613B681B01DBB23A69DD
:10529C0013433B617B6923F400737B61BB681B0286
:1052AC0003F400737A6913437B61FB683A69DA6132
:1052BC00FB687A691A6200BF1C37BD4680BC704718
:1052CC0080B487B000AFF860B9607A603B60FB686F
:1052DC001B6A7B61FB681B6A23F48052FB681A62B1
:1052EC00FB68DB693B613B6923F440733B617B6882
:1052FC001B023A6913433B613B6923F470433B61E6
:10530C003B681B039BB23A6913433B617B6923F4F3
:10531C0000537B61BB681B0303F400537A6913438E
:10532C007B61FB683A69DA61FB687A691A6200BFD3
:10533C001C37BD4680BC704780B485B000AF786028
:10534C0039607B689B68FB60FB6823F07003FB6033
:10535C003A68FB68134343F00703FB607B68FA6809
:10536C009A6000BF1437BD4680BC704780B487B0CC
:10537C0000AFF860B9607A603B60FB689B687B614A
:10538C007B6923F47F437B613B681A027B681A4379
:10539C00BB6813437A6913437B61FB687A699A6033
:1053AC0000BF1C37BD4680BC704780B487B000AFCF
:1053BC00F860B9607A60BB6803F01F03012202FA3F
:1053CC0003F37B61FB681A6A7B69DB431A40FB6859
:1053DC001A62FB681A6ABB6803F01F03796801FA4A
:1053EC0003F31A43FB681A6200BF1C37BD4680BC2E
:1053FC007047000080B485B000AF786039607B687E
:10540C0093F83C30012B01D1022346E07B6801224A
:10541C0083F83C207B68022283F83D207B681B6864
:10542C005B68FB607B681B689B68BB60FB6823F058
:10543C007003FB603B681B68FA681343FB607B6876
:10544C001B68FA685A607B681B68164A93420ED038
:10545C007B681B68B3F1804F09D07B681B68124ACC
:10546C00934204D07B681B68104A93420CD1BB68F2
:10547C0023F08003BB603B685B68BA681343BB6076
:10548C007B681B68BA689A607B68012283F83D20B0
:10549C007B68002283F83C20002318461437BD4655
:1054AC0080BC7047002C0140000400400008004004
:1054BC0080B483B000AF786000BF0C37BD4680BCB1
:1054CC00704780B483B000AF786000BF0C37BD4626
:1054DC0080BC704703460244934200D1704703F8E6
:1054EC00011BF9E770B500260C4D0D4C641BA41084
:1054FC00A64209D100F01AF800260A4D0A4C641B8A
:10550C00A410A64205D170BD55F8043B984701364E
:10551C00EEE755F8043B98470136F2E7B055000822
:10552C00B0550008B0550008B4550008F8B500BFD8
:10553C00F8BC08BC9E467047F8B500BFF8BC08BC68
:04554C009E467047C0
:1055500031203E3E204D414E55414C0032203E3ED2
:10556000204155544F4D41544943000044697374E0
:105570003A0000004155544F000000004D414E5587
:10558000414C000000000000000000000102030484
:1055900006070809000000000102030402030405D5
:1055A000060708090A0B0C0D0E0F1010010200006F
:0455B00031010008BD
:0455B4000D010008DD
:0C55B8000024F4001000000001000000BE
:0400000508001BC113
:00000001FF
